:020000020000FC
:100000003327442755276627772788279927A0E095
:10001000B1E007E70D930BE70D930DE70D930EE7A6
:100020000D9307EB0D930BEB0D930DEB0D930EEB77
:100030000D9307ED0D930BED0D930DED0D930EED5F
:100040000D9307EE0D930BEE0D930DEE0D930EEE4B
:100050000D93C0E1D1E006E009930BE509930FE4AD
:1000600009930FE3099306E609930DE609930DE75B
:1000700009930FE3099307E009930FE709930FE64C
:1000800009930FE3099300E809930FE309930FE342
:1000900009930FE3099300EF0AB96FEF6BB90FEF04
:1000A00004B90FE707B96FE76BB979B10E9468002F
:1000B0006FEB6BB979B10E9468006FED6BB979B1E4
:1000C0000E9468006FEE6BB979B10E946800EBCFB7
:1000D000AA27989411E11A950D910713E1F7AA95B3
:1000E0009894112351F0989417EE011719F00E947B
:1000F000870003C041130E947E0008959894552301
:1001000011F0552701C050E80E9496000895CA2FAB
:10011000609699278881850F082F001F991F001F5F
:10012000991F85B998B94C913881089598945523B1
:1001300019F0350F832F01C0832F082F001F991F3F
:0E014000001F991F85B998B94C913881089518
:00000001FF
