:020000020000FC
:020000002AC014
:1000540027C038984098399A0FEF0AB904B900E6D6
:1000640000937C000DE800937A00C0E0D1E00FE338
:10007400099306E009930BE509930FE4099306E657
:1000840009930DE609930DE7099307E009930FEF30
:1000940009930FE609930DEC00937A007894FFCF4F
:1000A4000F930FB70F930E945E000DEC00937A003C
:1000B4000F910FBF0F9118950091790019E1090371
:1000C400012D1DE00903512D1092110115E0019E2F
:1000D4001794079417940794179407941794079404
:1000E400179407941794079417940794602D00921B
:1000F400100198941AE01A951513E9F7C12F088195
:100104000BB95F9A98941AE01A951613E9F7C12F60
:10011400088105B91127001F111F001F111F001F9F
:06012400111F18B9089537
:00000001FF
